{
  "contractName": "HotelBooking",
  "abi": [
    {
      "inputs": [],
      "stateMutability": "nonpayable",
      "type": "constructor"
    },
    {
      "inputs": [
        {
          "internalType": "string",
          "name": "",
          "type": "string"
        }
      ],
      "name": "hotels",
      "outputs": [
        {
          "internalType": "uint256",
          "name": "basePricePerDay",
          "type": "uint256"
        },
        {
          "internalType": "bool",
          "name": "registered",
          "type": "bool"
        },
        {
          "components": [
            {
              "internalType": "bytes1",
              "name": "hash_function",
              "type": "bytes1"
            },
            {
              "internalType": "bytes1",
              "name": "hash_size",
              "type": "bytes1"
            },
            {
              "internalType": "bytes32",
              "name": "digest",
              "type": "bytes32"
            }
          ],
          "internalType": "struct HotelBooking.IPFS_hash",
          "name": "documents",
          "type": "tuple"
        }
      ],
      "stateMutability": "view",
      "type": "function"
    },
    {
      "inputs": [],
      "name": "owner",
      "outputs": [
        {
          "internalType": "address",
          "name": "",
          "type": "address"
        }
      ],
      "stateMutability": "view",
      "type": "function"
    },
    {
      "inputs": [
        {
          "internalType": "string",
          "name": "hotelName",
          "type": "string"
        },
        {
          "internalType": "uint256",
          "name": "_basePricePerDay",
          "type": "uint256"
        }
      ],
      "name": "registerHotel",
      "outputs": [],
      "stateMutability": "nonpayable",
      "type": "function"
    },
    {
      "inputs": [
        {
          "internalType": "string",
          "name": "hotelName",
          "type": "string"
        },
        {
          "internalType": "enum HotelBooking.RoomType",
          "name": "_roomType",
          "type": "uint8"
        },
        {
          "internalType": "uint256",
          "name": "_bookingDays",
          "type": "uint256"
        }
      ],
      "name": "bookHotel",
      "outputs": [],
      "stateMutability": "payable",
      "type": "function"
    },
    {
      "inputs": [
        {
          "internalType": "string",
          "name": "hotelName",
          "type": "string"
        },
        {
          "internalType": "enum HotelBooking.RoomType",
          "name": "_roomType",
          "type": "uint8"
        },
        {
          "internalType": "uint256",
          "name": "_bookingDays",
          "type": "uint256"
        }
      ],
      "name": "estimateBookingPrice",
      "outputs": [
        {
          "internalType": "uint256",
          "name": "",
          "type": "uint256"
        }
      ],
      "stateMutability": "view",
      "type": "function"
    },
    {
      "inputs": [
        {
          "internalType": "string",
          "name": "hotelName",
          "type": "string"
        }
      ],
      "name": "getHotelBookings",
      "outputs": [
        {
          "components": [
            {
              "internalType": "address",
              "name": "customer",
              "type": "address"
            },
            {
              "internalType": "enum HotelBooking.RoomType",
              "name": "roomType",
              "type": "uint8"
            },
            {
              "internalType": "uint256",
              "name": "bookingDays",
              "type": "uint256"
            }
          ],
          "internalType": "struct HotelBooking.Booking[]",
          "name": "",
          "type": "tuple[]"
        }
      ],
      "stateMutability": "view",
      "type": "function"
    },
    {
      "inputs": [
        {
          "internalType": "string",
          "name": "hotelName",
          "type": "string"
        },
        {
          "internalType": "bytes1",
          "name": "_hashFunction",
          "type": "bytes1"
        },
        {
          "internalType": "bytes1",
          "name": "_hashSize",
          "type": "bytes1"
        },
        {
          "internalType": "bytes32",
          "name": "_digest",
          "type": "bytes32"
        }
      ],
      "name": "setIPFSHash",
      "outputs": [],
      "stateMutability": "nonpayable",
      "type": "function"
    },
    {
      "inputs": [
        {
          "internalType": "string",
          "name": "hotelName",
          "type": "string"
        }
      ],
      "name": "getIPFShash",
      "outputs": [
        {
          "internalType": "bytes",
          "name": "",
          "type": "bytes"
        }
      ],
      "stateMutability": "view",
      "type": "function"
    }
  ],
  "bytecode": "0x608060405234801561001057600080fd5b50336000806101000a81548173ffffffffffffffffffffffffffffffffffffffff021916908373ffffffffffffffffffffffffffffffffffffffff160217905550611754806100606000396000f3fe60806040526004361061007b5760003560e01c8063e07361f31161004e578063e07361f31461014e578063e5eb0dae1461018b578063eaab52df146101b4578063fb15218a146101d05761007b565b806334024731146100805780635f4642fa146100bd5780638da5cb5b146100fa5780639d83714d14610125575b600080fd5b34801561008c57600080fd5b506100a760048036038101906100a29190610cc4565b61020f565b6040516100b49190610d8c565b60405180910390f35b3480156100c957600080fd5b506100e460048036038101906100df9190610cc4565b6102c2565b6040516100f19190610f70565b60405180910390f35b34801561010657600080fd5b5061010f6103dd565b60405161011c9190610fa1565b60405180910390f35b34801561013157600080fd5b5061014c6004803603810190610147919061104a565b610401565b005b34801561015a57600080fd5b506101756004803603810190610170919061111e565b61056c565b604051610182919061119c565b60405180910390f35b34801561019757600080fd5b506101b260048036038101906101ad91906111b7565b61061b565b005b6101ce60048036038101906101c9919061111e565b6107be565b005b3480156101dc57600080fd5b506101f760048036038101906101f29190610cc4565b610a0a565b6040516102069392919061128e565b60405180910390f35b6060600182604051610221919061130c565b908152602001604051809103902060030160000160009054906101000a900460f81b600183604051610253919061130c565b908152602001604051809103902060030160000160019054906101000a900460f81b600184604051610285919061130c565b9081526020016040518091039020600301600101546040516020016102ac93929190611365565b6040516020818303038152906040529050919050565b60606001826040516102d4919061130c565b9081526020016040518091039020600201805480602002602001604051908101604052809291908181526020016000905b828210156103d257838290600052602060002090600202016040518060600160405290816000820160009054906101000a900473ffffffffffffffffffffffffffffffffffffffff1673ffffffffffffffffffffffffffffffffffffffff1673ffffffffffffffffffffffffffffffffffffffff1681526020016000820160149054906101000a900460ff1660028111156103a3576103a2610e1b565b5b60028111156103b5576103b4610e1b565b5b815260200160018201548152505081526020019060010190610305565b505050509050919050565b60008054906101000a900473ffffffffffffffffffffffffffffffffffffffff1681565b60008054906101000a900473ffffffffffffffffffffffffffffffffffffffff1673ffffffffffffffffffffffffffffffffffffffff163373ffffffffffffffffffffffffffffffffffffffff161461048f576040517f08c379a000000000000000000000000000000000000000000000000000000000815260040161048690611425565b60405180910390fd5b60018460405161049f919061130c565b908152602001604051809103902060010160009054906101000a900460ff166104fd576040517f08c379a00000000000000000000000000000000000000000000000000000000081526004016104f490611491565b60405180910390fd5b600060018560405161050f919061130c565b90815260200160405180910390206003019050838160000160006101000a81548160ff021916908360f81c0217905550828160000160016101000a81548160ff021916908360f81c02179055508181600101819055505050505050565b600080600190506001600281111561058757610586610e1b565b5b84600281111561059a57610599610e1b565b5b036105a857600290506105d9565b6002808111156105bb576105ba610e1b565b5b8460028111156105ce576105cd610e1b565b5b036105d857600390505b5b82816001876040516105eb919061130c565b90815260200160405180910390206000015461060791906114e0565b61061191906114e0565b9150509392505050565b60008054906101000a900473ffffffffffffffffffffffffffffffffffffffff1673ffffffffffffffffffffffffffffffffffffffff163373ffffffffffffffffffffffffffffffffffffffff16146106a9576040517f08c379a00000000000000000000000000000000000000000000000000000000081526004016106a090611425565b60405180910390fd5b6001826040516106b9919061130c565b908152602001604051809103902060010160009054906101000a900460ff1615610718576040517f08c379a000000000000000000000000000000000000000000000000000000000815260040161070f9061156e565b60405180910390fd5b6000811161075b576040517f08c379a000000000000000000000000000000000000000000000000000000000815260040161075290611600565b60405180910390fd5b8060018360405161076c919061130c565b90815260200160405180910390206000018190555060018083604051610792919061130c565b908152602001604051809103902060010160006101000a81548160ff0219169083151502179055505050565b6001836040516107ce919061130c565b908152602001604051809103902060010160009054906101000a900460ff1661082c576040517f08c379a000000000000000000000000000000000000000000000000000000000815260040161082390611491565b60405180910390fd5b6000811161086f576040517f08c379a000000000000000000000000000000000000000000000000000000000815260040161086690611692565b60405180910390fd5b61087a83838361056c565b3410156108bc576040517f08c379a00000000000000000000000000000000000000000000000000000000081526004016108b3906116fe565b60405180910390fd5b6108c4610b21565b33816000019073ffffffffffffffffffffffffffffffffffffffff16908173ffffffffffffffffffffffffffffffffffffffff1681525050828160200190600281111561091457610913610e1b565b5b9081600281111561092857610927610e1b565b5b8152505081816040018181525050600184604051610946919061130c565b908152602001604051809103902060020181908060018154018082558091505060019003906000526020600020906002020160009091909190915060008201518160000160006101000a81548173ffffffffffffffffffffffffffffffffffffffff021916908373ffffffffffffffffffffffffffffffffffffffff16021790555060208201518160000160146101000a81548160ff021916908360028111156109f3576109f2610e1b565b5b021790555060408201518160010155505050505050565b6001818051602081018201805184825260208301602085012081835280955050505050506000915090508060000154908060010160009054906101000a900460ff1690806003016040518060600160405290816000820160009054906101000a900460f81b7effffffffffffffffffffffffffffffffffffffffffffffffffffffffffffff19167effffffffffffffffffffffffffffffffffffffffffffffffffffffffffffff191681526020016000820160019054906101000a900460f81b7effffffffffffffffffffffffffffffffffffffffffffffffffffffffffffff19167effffffffffffffffffffffffffffffffffffffffffffffffffffffffffffff19168152602001600182015481525050905083565b6040518060600160405280600073ffffffffffffffffffffffffffffffffffffffff16815260200160006002811115610b5d57610b5c610e1b565b5b8152602001600081525090565b6000604051905090565b600080fd5b600080fd5b600080fd5b600080fd5b6000601f19601f8301169050919050565b7f4e487b7100000000000000000000000000000000000000000000000000000000600052604160045260246000fd5b610bd182610b88565b810181811067ffffffffffffffff82111715610bf057610bef610b99565b5b80604052505050565b6000610c03610b6a565b9050610c0f8282610bc8565b919050565b600067ffffffffffffffff821115610c2f57610c2e610b99565b5b610c3882610b88565b9050602081019050919050565b82818337600083830152505050565b6000610c67610c6284610c14565b610bf9565b905082815260208101848484011115610c8357610c82610b83565b5b610c8e848285610c45565b509392505050565b600082601f830112610cab57610caa610b7e565b5b8135610cbb848260208601610c54565b91505092915050565b600060208284031215610cda57610cd9610b74565b5b600082013567ffffffffffffffff811115610cf857610cf7610b79565b5b610d0484828501610c96565b91505092915050565b600081519050919050565b600082825260208201905092915050565b60005b83811015610d47578082015181840152602081019050610d2c565b60008484015250505050565b6000610d5e82610d0d565b610d688185610d18565b9350610d78818560208601610d29565b610d8181610b88565b840191505092915050565b60006020820190508181036000830152610da68184610d53565b905092915050565b600081519050919050565b600082825260208201905092915050565b6000819050602082019050919050565b600073ffffffffffffffffffffffffffffffffffffffff82169050919050565b6000610e0582610dda565b9050919050565b610e1581610dfa565b82525050565b7f4e487b7100000000000000000000000000000000000000000000000000000000600052602160045260246000fd5b60038110610e5b57610e5a610e1b565b5b50565b6000819050610e6c82610e4a565b919050565b6000610e7c82610e5e565b9050919050565b610e8c81610e71565b82525050565b6000819050919050565b610ea581610e92565b82525050565b606082016000820151610ec16000850182610e0c565b506020820151610ed46020850182610e83565b506040820151610ee76040850182610e9c565b50505050565b6000610ef98383610eab565b60608301905092915050565b6000602082019050919050565b6000610f1d82610dae565b610f278185610db9565b9350610f3283610dca565b8060005b83811015610f63578151610f4a8882610eed565b9750610f5583610f05565b925050600181019050610f36565b5085935050505092915050565b60006020820190508181036000830152610f8a8184610f12565b905092915050565b610f9b81610dfa565b82525050565b6000602082019050610fb66000830184610f92565b92915050565b60007fff0000000000000000000000000000000000000000000000000000000000000082169050919050565b610ff181610fbc565b8114610ffc57600080fd5b50565b60008135905061100e81610fe8565b92915050565b6000819050919050565b61102781611014565b811461103257600080fd5b50565b6000813590506110448161101e565b92915050565b6000806000806080858703121561106457611063610b74565b5b600085013567ffffffffffffffff81111561108257611081610b79565b5b61108e87828801610c96565b945050602061109f87828801610fff565b93505060406110b087828801610fff565b92505060606110c187828801611035565b91505092959194509250565b600381106110da57600080fd5b50565b6000813590506110ec816110cd565b92915050565b6110fb81610e92565b811461110657600080fd5b50565b600081359050611118816110f2565b92915050565b60008060006060848603121561113757611136610b74565b5b600084013567ffffffffffffffff81111561115557611154610b79565b5b61116186828701610c96565b9350506020611172868287016110dd565b925050604061118386828701611109565b9150509250925092565b61119681610e92565b82525050565b60006020820190506111b1600083018461118d565b92915050565b600080604083850312156111ce576111cd610b74565b5b600083013567ffffffffffffffff8111156111ec576111eb610b79565b5b6111f885828601610c96565b925050602061120985828601611109565b9150509250929050565b60008115159050919050565b61122881611213565b82525050565b61123781610fbc565b82525050565b61124681611014565b82525050565b606082016000820151611262600085018261122e565b506020820151611275602085018261122e565b506040820151611288604085018261123d565b50505050565b600060a0820190506112a3600083018661118d565b6112b0602083018561121f565b6112bd604083018461124c565b949350505050565b600081519050919050565b600081905092915050565b60006112e6826112c5565b6112f081856112d0565b9350611300818560208601610d29565b80840191505092915050565b600061131882846112db565b915081905092915050565b6000819050919050565b61133e61133982610fbc565b611323565b82525050565b6000819050919050565b61135f61135a82611014565b611344565b82525050565b6000611371828661132d565b600182019150611381828561132d565b600182019150611391828461134e565b602082019150819050949350505050565b600082825260208201905092915050565b7f4f6e6c792074686520636f6e7472616374206f776e65722063616e2063616c6c60008201527f20746869732066756e6374696f6e000000000000000000000000000000000000602082015250565b600061140f602e836113a2565b915061141a826113b3565b604082019050919050565b6000602082019050818103600083015261143e81611402565b9050919050565b7f486f74656c206e6f742072656769737465726564000000000000000000000000600082015250565b600061147b6014836113a2565b915061148682611445565b602082019050919050565b600060208201905081810360008301526114aa8161146e565b9050919050565b7f4e487b7100000000000000000000000000000000000000000000000000000000600052601160045260246000fd5b60006114eb82610e92565b91506114f683610e92565b925082820261150481610e92565b9150828204841483151761151b5761151a6114b1565b5b5092915050565b7f486f74656c20616c726561647920726567697374657265640000000000000000600082015250565b60006115586018836113a2565b915061156382611522565b602082019050919050565b600060208201905081810360008301526115878161154b565b9050919050565b7f426173652070726963652070657220646179206d75737420626520686967686560008201527f72207468616e2030000000000000000000000000000000000000000000000000602082015250565b60006115ea6028836113a2565b91506115f58261158e565b604082019050919050565b60006020820190508181036000830152611619816115dd565b9050919050565b7f426f6f6b696e672064617973206d75737420626520686967686572207468616e60008201527f2030000000000000000000000000000000000000000000000000000000000000602082015250565b600061167c6022836113a2565b915061168782611620565b604082019050919050565b600060208201905081810360008301526116ab8161166f565b9050919050565b7f4e6f7420656e6f75676820776569730000000000000000000000000000000000600082015250565b60006116e8600f836113a2565b91506116f3826116b2565b602082019050919050565b60006020820190508181036000830152611717816116db565b905091905056fea26469706673582212209773f58401d0d57236aaa2abc7e7bdd140c4cf7ac54b06d96aa74cc8ab2c54df64736f6c63430008120033",
  "immutableReferences": {},
  "source": "// SPDX-License-Identifier: MIT\r\npragma solidity ^0.8.18;\r\n\r\n/**\r\n * @title Hotel booking contract\r\n * @notice Do not use this contract in production\r\n */\r\ncontract HotelBooking {\r\n    // Variables\r\n    address public owner;\r\n\r\n    // Data structures\r\n    struct IPFS_hash {\r\n        bytes1 hash_function;\r\n        bytes1 hash_size;\r\n        bytes32 digest;\r\n    }\r\n\r\n    struct Hotel {\r\n        uint basePricePerDay; // In weis\r\n        bool registered;\r\n        Booking[] bookings;\r\n        IPFS_hash documents;\r\n    }\r\n\r\n    struct Booking {\r\n        address customer;\r\n        RoomType roomType;\r\n        uint bookingDays;\r\n    }\r\n\r\n    enum RoomType {\r\n        Single,\r\n        Double,\r\n        Suite\r\n    }\r\n\r\n    // Hotel information (mapping)\r\n    mapping(string => Hotel) public hotels;\r\n\r\n    constructor() {\r\n        owner = msg.sender;\r\n    }\r\n\r\n    // Modifiers\r\n    modifier onlyOwner() {\r\n        require(\r\n            msg.sender == owner,\r\n            \"Only the contract owner can call this function\"\r\n        );\r\n        _;\r\n    }\r\n\r\n    // Functions\r\n    function registerHotel(\r\n        string memory hotelName,\r\n        uint _basePricePerDay\r\n    ) public onlyOwner {\r\n        require(!hotels[hotelName].registered, \"Hotel already registered\");\r\n        require(\r\n            _basePricePerDay > 0,\r\n            \"Base price per day must be higher than 0\"\r\n        );\r\n\r\n        hotels[hotelName].basePricePerDay = _basePricePerDay;\r\n        hotels[hotelName].registered = true;\r\n    }\r\n\r\n    function bookHotel(\r\n        string memory hotelName,\r\n        RoomType _roomType,\r\n        uint _bookingDays\r\n    ) public payable {\r\n        require(hotels[hotelName].registered, \"Hotel not registered\");\r\n        require(_bookingDays > 0, \"Booking days must be higher than 0\");\r\n        require(\r\n            msg.value >=\r\n                estimateBookingPrice(hotelName, _roomType, _bookingDays),\r\n            \"Not enough weis\"\r\n        );\r\n\r\n        Booking memory b;\r\n        b.customer = msg.sender;\r\n        b.roomType = _roomType;\r\n        b.bookingDays = _bookingDays;\r\n\r\n        hotels[hotelName].bookings.push(b);\r\n    }\r\n\r\n    function estimateBookingPrice(\r\n        string memory hotelName,\r\n        RoomType _roomType,\r\n        uint _bookingDays\r\n    ) public view returns (uint) {\r\n        uint multiplier = 1;\r\n\r\n        if (_roomType == RoomType.Double) {\r\n            multiplier = 2;\r\n        } else if (_roomType == RoomType.Suite) {\r\n            multiplier = 3;\r\n        }\r\n\r\n        return hotels[hotelName].basePricePerDay * multiplier * _bookingDays;\r\n    }\r\n\r\n    function getHotelBookings(\r\n        string memory hotelName\r\n    ) public view returns (Booking[] memory) {\r\n        return hotels[hotelName].bookings;\r\n    }\r\n\r\n    function setIPFSHash(string memory hotelName, bytes1 _hashFunction, bytes1 _hashSize, bytes32 _digest) public onlyOwner {\r\n        require(hotels[hotelName].registered, \"Hotel not registered\");\r\n\r\n        IPFS_hash storage ipfsHash = hotels[hotelName].documents;\r\n        ipfsHash.hash_function = _hashFunction;\r\n        ipfsHash.hash_size = _hashSize;\r\n        ipfsHash.digest = _digest;\r\n    }\r\n\r\n    //To test the IPFS hash\r\n    function getIPFShash(string memory hotelName) public view returns(bytes memory) {\r\n        return \r\n            abi.encodePacked(\r\n                hotels[hotelName].documents.hash_function,\r\n                hotels[hotelName].documents.hash_size,\r\n                hotels[hotelName].documents.digest\r\n            );\r\n    }\r\n}\r\n",
  "sourcePath": "/Users/gabriela.benejam/Downloads/Blockchain ass/PR2/PRAC2Template/Exercice1&2/contracts/HotelBooking.sol",
  "compiler": {
    "name": "solc",
    "version": "0.8.18+commit.87f61d96.Emscripten.clang"
  },
  "schemaVersion": "3.4.16",
  "updatedAt": "2023-12-29T22:04:11.499Z",
  "devdoc": {
    "kind": "dev",
    "methods": {},
    "title": "Hotel booking contract",
    "version": 1
  },
  "userdoc": {
    "kind": "user",
    "methods": {},
    "notice": "Do not use this contract in production",
    "version": 1
  }
}